{
  "contractName": "Election",
  "abi": [
    {
      "inputs": [],
      "stateMutability": "nonpayable",
      "type": "constructor"
    },
    {
      "anonymous": false,
      "inputs": [
        {
          "indexed": true,
          "internalType": "uint256",
          "name": "_candidateId",
          "type": "uint256"
        }
      ],
      "name": "Voted",
      "type": "event"
    },
    {
      "inputs": [],
      "name": "candidatesCount",
      "outputs": [
        {
          "internalType": "uint256",
          "name": "",
          "type": "uint256"
        }
      ],
      "stateMutability": "view",
      "type": "function",
      "constant": true
    },
    {
      "inputs": [
        {
          "internalType": "uint256",
          "name": "_candidateId",
          "type": "uint256"
        }
      ],
      "name": "vote",
      "outputs": [],
      "stateMutability": "nonpayable",
      "type": "function"
    },
    {
      "inputs": [
        {
          "internalType": "uint256",
          "name": "_candidateId",
          "type": "uint256"
        }
      ],
      "name": "getCandidateDetails",
      "outputs": [
        {
          "internalType": "string",
          "name": "",
          "type": "string"
        },
        {
          "internalType": "uint256",
          "name": "",
          "type": "uint256"
        }
      ],
      "stateMutability": "view",
      "type": "function",
      "constant": true
    }
  ],
  "bytecode": "0x6080604052600060025534801561001557600080fd5b5061005a6040518060400160405280600b81526020017f43616e64696461746520310000000000000000000000000000000000000000008152506100a360201b60201c565b61009e6040518060400160405280600b81526020017f43616e64696461746520320000000000000000000000000000000000000000008152506100a360201b60201c565b6102a8565b60405180606001604052806002548152602001828152602001600081525060008060025481526020019081526020016000206000820151816000015560208201518160010190805190602001906100fb929190610124565b50604082015181600201559050506002600081548092919061011c90610200565b919050555050565b82805461013090610277565b90600052602060002090601f0160209004810192826101525760008555610199565b82601f1061016b57805160ff1916838001178555610199565b82800160010185558215610199579182015b8281111561019857825182559160200191906001019061017d565b5b5090506101a691906101aa565b5090565b5b808211156101c35760008160009055506001016101ab565b5090565b7f4e487b7100000000000000000000000000000000000000000000000000000000600052601160045260246000fd5b6000819050919050565b600061020b826101f6565b91507fffffffffffffffffffffffffffffffffffffffffffffffffffffffffffffffff820361023d5761023c6101c7565b5b600182019050919050565b7f4e487b7100000000000000000000000000000000000000000000000000000000600052602260045260246000fd5b6000600282049050600182168061028f57607f821691505b6020821081036102a2576102a1610248565b5b50919050565b61069b806102b76000396000f3fe608060405234801561001057600080fd5b50600436106100415760003560e01c80630121b93f1461004657806327f9fd50146100625780632d35a8a214610093575b600080fd5b610060600480360381019061005b9190610396565b6100b1565b005b61007c60048036038101906100779190610396565b610241565b60405161008a92919061046b565b60405180910390f35b61009b610355565b6040516100a8919061049b565b60405180910390f35b600160003373ffffffffffffffffffffffffffffffffffffffff1673ffffffffffffffffffffffffffffffffffffffff16815260200190815260200160002060009054906101000a900460ff161561013e576040517f08c379a000000000000000000000000000000000000000000000000000000000815260040161013590610502565b60405180910390fd5b60008110158015610150575060025481105b61018f576040517f08c379a00000000000000000000000000000000000000000000000000000000081526004016101869061056e565b60405180910390fd5b60008082815260200190815260200160002060020160008154809291906101b5906105bd565b919050555060018060003373ffffffffffffffffffffffffffffffffffffffff1673ffffffffffffffffffffffffffffffffffffffff16815260200190815260200160002060006101000a81548160ff021916908315150217905550807f7f511e347bf51eed3be100b3194247d5207f05f3b33de7d31e3e8ee73199a04960405160405180910390a250565b60606000808310158015610256575060025483105b610295576040517f08c379a000000000000000000000000000000000000000000000000000000000815260040161028c9061056e565b60405180910390fd5b600080848152602001908152602001600020600101600080858152602001908152602001600020600201548180546102cc90610634565b80601f01602080910402602001604051908101604052809291908181526020018280546102f890610634565b80156103455780601f1061031a57610100808354040283529160200191610345565b820191906000526020600020905b81548152906001019060200180831161032857829003601f168201915b5050505050915091509150915091565b60025481565b600080fd5b6000819050919050565b61037381610360565b811461037e57600080fd5b50565b6000813590506103908161036a565b92915050565b6000602082840312156103ac576103ab61035b565b5b60006103ba84828501610381565b91505092915050565b600081519050919050565b600082825260208201905092915050565b60005b838110156103fd5780820151818401526020810190506103e2565b8381111561040c576000848401525b50505050565b6000601f19601f8301169050919050565b600061042e826103c3565b61043881856103ce565b93506104488185602086016103df565b61045181610412565b840191505092915050565b61046581610360565b82525050565b600060408201905081810360008301526104858185610423565b9050610494602083018461045c565b9392505050565b60006020820190506104b0600083018461045c565b92915050565b7f596f75206861766520616c726561647920766f74656400000000000000000000600082015250565b60006104ec6016836103ce565b91506104f7826104b6565b602082019050919050565b6000602082019050818103600083015261051b816104df565b9050919050565b7f496e76616c69642063616e646964617465204944000000000000000000000000600082015250565b60006105586014836103ce565b915061056382610522565b602082019050919050565b600060208201905081810360008301526105878161054b565b9050919050565b7f4e487b7100000000000000000000000000000000000000000000000000000000600052601160045260246000fd5b60006105c882610360565b91507fffffffffffffffffffffffffffffffffffffffffffffffffffffffffffffffff82036105fa576105f961058e565b5b600182019050919050565b7f4e487b7100000000000000000000000000000000000000000000000000000000600052602260045260246000fd5b6000600282049050600182168061064c57607f821691505b60208210810361065f5761065e610605565b5b5091905056fea2646970667358221220f0e2b2eb6f7301395edc8fa05541e42a2b16d7448995178b8bc1f0da7c52db1c64736f6c634300080e0033",
  "immutableReferences": {},
  "source": "// SPDX-License-Identifier: MIT\r\npragma solidity >=0.4.0 <0.9.0;\r\n\r\ncontract Election {\r\n    struct Candidate {\r\n        uint256 id;\r\n        string name;\r\n        uint256 voteCount;\r\n    }\r\n\r\n    mapping(uint256 => Candidate) candidates;\r\n    mapping(address => bool) voted;\r\n\r\n    uint256 public candidatesCount = 0;\r\n\r\n    constructor() {\r\n        addCandidate(\"Candidate 1\");\r\n        addCandidate(\"Candidate 2\");\r\n    }\r\n\r\n    event Voted(uint256 indexed _candidateId);\r\n\r\n    function addCandidate(string memory _name) private {\r\n        candidates[candidatesCount] = Candidate(candidatesCount, _name, 0);\r\n        candidatesCount++;\r\n    }\r\n\r\n    function vote(uint256 _candidateId) public {\r\n        require(!voted[msg.sender], \"You have already voted\");\r\n        require(\r\n            _candidateId >= 0 && _candidateId < candidatesCount,\r\n            \"Invalid candidate ID\"\r\n        );\r\n\r\n        candidates[_candidateId].voteCount++;\r\n        voted[msg.sender] = true;\r\n\r\n        emit Voted(_candidateId);\r\n    }\r\n\r\n    function getCandidateDetails(uint256 _candidateId)\r\n        public\r\n        view\r\n        returns (string memory, uint256)\r\n    {\r\n        require(\r\n            _candidateId >= 0 && _candidateId < candidatesCount,\r\n            \"Invalid candidate ID\"\r\n        );\r\n        return (\r\n            candidates[_candidateId].name,\r\n            candidates[_candidateId].voteCount\r\n        );\r\n    }\r\n}\r\n",
  "sourcePath": "C:\\dev\\voting-dapp\\contracts\\Voting.sol",
  "compiler": {
    "name": "solc",
    "version": "0.8.14+commit.80d49f37.Emscripten.clang"
  },
  "schemaVersion": "3.4.7",
  "updatedAt": "2022-07-01T17:29:48.660Z",
  "networkType": "ethereum",
  "devdoc": {
    "kind": "dev",
    "methods": {},
    "version": 1
  },
  "userdoc": {
    "kind": "user",
    "methods": {},
    "version": 1
  }
}