{
  "contractName": "Election",
  "abi": [
    {
      "inputs": [],
      "stateMutability": "nonpayable",
      "type": "constructor"
    },
    {
      "anonymous": false,
      "inputs": [
        {
          "indexed": true,
          "internalType": "uint256",
          "name": "_candidateId",
          "type": "uint256"
        }
      ],
      "name": "Voted",
      "type": "event"
    },
    {
      "inputs": [],
      "name": "candidatesCount",
      "outputs": [
        {
          "internalType": "uint256",
          "name": "",
          "type": "uint256"
        }
      ],
      "stateMutability": "view",
      "type": "function",
      "constant": true
    },
    {
      "inputs": [],
      "name": "electionState",
      "outputs": [
        {
          "internalType": "enum Election.State",
          "name": "",
          "type": "uint8"
        }
      ],
      "stateMutability": "view",
      "type": "function",
      "constant": true
    },
    {
      "inputs": [],
      "name": "owner",
      "outputs": [
        {
          "internalType": "address",
          "name": "",
          "type": "address"
        }
      ],
      "stateMutability": "view",
      "type": "function",
      "constant": true
    },
    {
      "inputs": [],
      "name": "votersCount",
      "outputs": [
        {
          "internalType": "uint256",
          "name": "",
          "type": "uint256"
        }
      ],
      "stateMutability": "view",
      "type": "function",
      "constant": true
    },
    {
      "inputs": [],
      "name": "startElection",
      "outputs": [],
      "stateMutability": "nonpayable",
      "type": "function"
    },
    {
      "inputs": [],
      "name": "endElection",
      "outputs": [],
      "stateMutability": "nonpayable",
      "type": "function"
    },
    {
      "inputs": [
        {
          "internalType": "address",
          "name": "_voter",
          "type": "address"
        }
      ],
      "name": "addVoter",
      "outputs": [],
      "stateMutability": "nonpayable",
      "type": "function"
    },
    {
      "inputs": [],
      "name": "getRole",
      "outputs": [
        {
          "internalType": "uint256",
          "name": "",
          "type": "uint256"
        }
      ],
      "stateMutability": "view",
      "type": "function",
      "constant": true
    },
    {
      "inputs": [
        {
          "internalType": "uint256",
          "name": "_candidateId",
          "type": "uint256"
        }
      ],
      "name": "vote",
      "outputs": [],
      "stateMutability": "nonpayable",
      "type": "function"
    },
    {
      "inputs": [
        {
          "internalType": "uint256",
          "name": "_candidateId",
          "type": "uint256"
        }
      ],
      "name": "getCandidateDetails",
      "outputs": [
        {
          "internalType": "string",
          "name": "",
          "type": "string"
        },
        {
          "internalType": "uint256",
          "name": "",
          "type": "uint256"
        }
      ],
      "stateMutability": "view",
      "type": "function",
      "constant": true
    }
  ],
  "bytecode": "0x6080604052600060045560006005553480156200001b57600080fd5b50336000806101000a81548173ffffffffffffffffffffffffffffffffffffffff021916908373ffffffffffffffffffffffffffffffffffffffff16021790555060008060146101000a81548160ff02191690836002811115620000845762000083620002e2565b5b0217905550620000cf6040518060400160405280600b81526020017f43616e64696461746520310000000000000000000000000000000000000000008152506200011b60201b60201c565b620001156040518060400160405280600b81526020017f43616e64696461746520320000000000000000000000000000000000000000008152506200011b60201b60201c565b6200047e565b3373ffffffffffffffffffffffffffffffffffffffff1660008054906101000a900473ffffffffffffffffffffffffffffffffffffffff1673ffffffffffffffffffffffffffffffffffffffff1614620001ac576040517f08c379a0000000000000000000000000000000000000000000000000000000008152600401620001a39062000372565b60405180910390fd5b6040518060600160405280600454815260200182815260200160008152506001600060045481526020019081526020016000206000820151816000015560208201518160010190805190602001906200020792919062000232565b5060408201518160020155905050600460008154809291906200022a90620003cd565b919050555050565b828054620002409062000449565b90600052602060002090601f016020900481019282620002645760008555620002b0565b82601f106200027f57805160ff1916838001178555620002b0565b82800160010185558215620002b0579182015b82811115620002af57825182559160200191906001019062000292565b5b509050620002bf9190620002c3565b5090565b5b80821115620002de576000816000905550600101620002c4565b5090565b7f4e487b7100000000000000000000000000000000000000000000000000000000600052602160045260246000fd5b600082825260208201905092915050565b7f4f6e6c79206f776e65722063616e206164642063616e64696461746573000000600082015250565b60006200035a601d8362000311565b9150620003678262000322565b602082019050919050565b600060208201905081810360008301526200038d816200034b565b9050919050565b7f4e487b7100000000000000000000000000000000000000000000000000000000600052601160045260246000fd5b6000819050919050565b6000620003da82620003c3565b91507fffffffffffffffffffffffffffffffffffffffffffffffffffffffffffffffff82036200040f576200040e62000394565b5b600182019050919050565b7f4e487b7100000000000000000000000000000000000000000000000000000000600052602260045260246000fd5b600060028204905060018216806200046257607f821691505b6020821081036200047857620004776200041a565b5b50919050565b610ea2806200048e6000396000f3fe608060405234801561001057600080fd5b506004361061009e5760003560e01c806362d73eb81161006657806362d73eb8146101365780638da5cb5b1461014057806398c079381461015e578063f4ab9adf1461017c578063fde08174146101985761009e565b80630121b93f146100a35780632280043d146100bf57806327f9fd50146100dd5780632d35a8a21461010e57806359f784681461012c575b600080fd5b6100bd60048036038101906100b89190610912565b6101b6565b005b6100c761044a565b6040516100d491906109b6565b60405180910390f35b6100f760048036038101906100f29190610912565b61045d565b604051610105929190610a79565b60405180910390f35b610116610573565b6040516101239190610aa9565b60405180910390f35b610134610579565b005b61013e61063e565b005b610148610703565b6040516101559190610b05565b60405180910390f35b610166610727565b6040516101739190610aa9565b60405180910390f35b61019660048036038101906101919190610b4c565b61072d565b005b6101a0610816565b6040516101ad9190610aa9565b60405180910390f35b600160028111156101ca576101c961093f565b5b600060149054906101000a900460ff1660028111156101ec576101eb61093f565b5b1461022c576040517f08c379a000000000000000000000000000000000000000000000000000000000815260040161022390610bc5565b60405180910390fd5b600360003373ffffffffffffffffffffffffffffffffffffffff1673ffffffffffffffffffffffffffffffffffffffff16815260200190815260200160002060009054906101000a900460ff166102b8576040517f08c379a00000000000000000000000000000000000000000000000000000000081526004016102af90610c31565b60405180910390fd5b600260003373ffffffffffffffffffffffffffffffffffffffff1673ffffffffffffffffffffffffffffffffffffffff16815260200190815260200160002060009054906101000a900460ff1615610345576040517f08c379a000000000000000000000000000000000000000000000000000000000815260040161033c90610c9d565b60405180910390fd5b60008110158015610357575060045481105b610396576040517f08c379a000000000000000000000000000000000000000000000000000000000815260040161038d90610d09565b60405180910390fd5b6001600082815260200190815260200160002060020160008154809291906103bd90610d58565b91905055506001600260003373ffffffffffffffffffffffffffffffffffffffff1673ffffffffffffffffffffffffffffffffffffffff16815260200190815260200160002060006101000a81548160ff021916908315150217905550807f7f511e347bf51eed3be100b3194247d5207f05f3b33de7d31e3e8ee73199a04960405160405180910390a250565b600060149054906101000a900460ff1681565b60606000808310158015610472575060045483105b6104b1576040517f08c379a00000000000000000000000000000000000000000000000000000000081526004016104a890610d09565b60405180910390fd5b6001600084815260200190815260200160002060010160016000858152602001908152602001600020600201548180546104ea90610dcf565b80601f016020809104026020016040519081016040528092919081815260200182805461051690610dcf565b80156105635780601f1061053857610100808354040283529160200191610563565b820191906000526020600020905b81548152906001019060200180831161054657829003601f168201915b5050505050915091509150915091565b60045481565b60008054906101000a900473ffffffffffffffffffffffffffffffffffffffff1673ffffffffffffffffffffffffffffffffffffffff163373ffffffffffffffffffffffffffffffffffffffff16146105d157600080fd5b600160028111156105e5576105e461093f565b5b600060149054906101000a900460ff1660028111156106075761060661093f565b5b1461061157600080fd5b6002600060146101000a81548160ff021916908360028111156106375761063661093f565b5b0217905550565b60008054906101000a900473ffffffffffffffffffffffffffffffffffffffff1673ffffffffffffffffffffffffffffffffffffffff163373ffffffffffffffffffffffffffffffffffffffff161461069657600080fd5b600060028111156106aa576106a961093f565b5b600060149054906101000a900460ff1660028111156106cc576106cb61093f565b5b146106d657600080fd5b6001600060146101000a81548160ff021916908360028111156106fc576106fb61093f565b5b0217905550565b60008054906101000a900473ffffffffffffffffffffffffffffffffffffffff1681565b60055481565b3373ffffffffffffffffffffffffffffffffffffffff1660008054906101000a900473ffffffffffffffffffffffffffffffffffffffff1673ffffffffffffffffffffffffffffffffffffffff16146107bb576040517f08c379a00000000000000000000000000000000000000000000000000000000081526004016107b290610e4c565b60405180910390fd5b6001600360008373ffffffffffffffffffffffffffffffffffffffff1673ffffffffffffffffffffffffffffffffffffffff16815260200190815260200160002060006101000a81548160ff02191690831515021790555050565b60003373ffffffffffffffffffffffffffffffffffffffff1660008054906101000a900473ffffffffffffffffffffffffffffffffffffffff1673ffffffffffffffffffffffffffffffffffffffff160361087457600190506108d4565b600360003373ffffffffffffffffffffffffffffffffffffffff1673ffffffffffffffffffffffffffffffffffffffff16815260200190815260200160002060009054906101000a900460ff16156108cf57600290506108d4565b600390505b90565b600080fd5b6000819050919050565b6108ef816108dc565b81146108fa57600080fd5b50565b60008135905061090c816108e6565b92915050565b600060208284031215610928576109276108d7565b5b6000610936848285016108fd565b91505092915050565b7f4e487b7100000000000000000000000000000000000000000000000000000000600052602160045260246000fd5b6003811061097f5761097e61093f565b5b50565b60008190506109908261096e565b919050565b60006109a082610982565b9050919050565b6109b081610995565b82525050565b60006020820190506109cb60008301846109a7565b92915050565b600081519050919050565b600082825260208201905092915050565b60005b83811015610a0b5780820151818401526020810190506109f0565b83811115610a1a576000848401525b50505050565b6000601f19601f8301169050919050565b6000610a3c826109d1565b610a4681856109dc565b9350610a568185602086016109ed565b610a5f81610a20565b840191505092915050565b610a73816108dc565b82525050565b60006040820190508181036000830152610a938185610a31565b9050610aa26020830184610a6a565b9392505050565b6000602082019050610abe6000830184610a6a565b92915050565b600073ffffffffffffffffffffffffffffffffffffffff82169050919050565b6000610aef82610ac4565b9050919050565b610aff81610ae4565b82525050565b6000602082019050610b1a6000830184610af6565b92915050565b610b2981610ae4565b8114610b3457600080fd5b50565b600081359050610b4681610b20565b92915050565b600060208284031215610b6257610b616108d7565b5b6000610b7084828501610b37565b91505092915050565b7f456c656374696f6e206973206e6f7420696e2070726f67726573730000000000600082015250565b6000610baf601b836109dc565b9150610bba82610b79565b602082019050919050565b60006020820190508181036000830152610bde81610ba2565b9050919050565b7f4e6f6e20617574686f726973656420757365722063616e6e6f7420766f746500600082015250565b6000610c1b601f836109dc565b9150610c2682610be5565b602082019050919050565b60006020820190508181036000830152610c4a81610c0e565b9050919050565b7f596f75206861766520616c726561647920766f74656400000000000000000000600082015250565b6000610c876016836109dc565b9150610c9282610c51565b602082019050919050565b60006020820190508181036000830152610cb681610c7a565b9050919050565b7f496e76616c69642063616e646964617465204944000000000000000000000000600082015250565b6000610cf36014836109dc565b9150610cfe82610cbd565b602082019050919050565b60006020820190508181036000830152610d2281610ce6565b9050919050565b7f4e487b7100000000000000000000000000000000000000000000000000000000600052601160045260246000fd5b6000610d63826108dc565b91507fffffffffffffffffffffffffffffffffffffffffffffffffffffffffffffffff8203610d9557610d94610d29565b5b600182019050919050565b7f4e487b7100000000000000000000000000000000000000000000000000000000600052602260045260246000fd5b60006002820490506001821680610de757607f821691505b602082108103610dfa57610df9610da0565b5b50919050565b7f4f6e6c79206f776e65722063616e2061646420766f7465720000000000000000600082015250565b6000610e366018836109dc565b9150610e4182610e00565b602082019050919050565b60006020820190508181036000830152610e6581610e29565b905091905056fea264697066735822122030a628bc41e68f13ecba0bf68f80aa6b7f73e181f63f3aec84c9bdf6df643f8264736f6c634300080e0033",
  "immutableReferences": {},
  "source": "// SPDX-License-Identifier: MIT\r\npragma solidity >=0.4.0 <0.9.0;\r\n\r\ncontract Election {\r\n\r\n    enum State {\r\n        NotStarted,\r\n        InProgress,\r\n        Ended\r\n    }\r\n\r\n    struct Candidate {\r\n        uint256 id;\r\n        string name;\r\n        uint256 voteCount;\r\n    }\r\n\r\n    address public owner;\r\n    State public electionState;\r\n\r\n    struct Voter {\r\n        uint256 id;\r\n        string name;\r\n    }\r\n\r\n    mapping(uint256 => Candidate) candidates;\r\n    mapping(address => bool) voted;\r\n\r\n    mapping(address => bool) isVoter;\r\n\r\n    uint256 public candidatesCount = 0;\r\n\r\n    uint256 public votersCount = 0;\r\n\r\n    constructor() {\r\n        owner = msg.sender;\r\n        electionState = State.NotStarted;\r\n        addCandidate(\"Candidate 1\");\r\n        addCandidate(\"Candidate 2\");\r\n    }\r\n\r\n    event Voted(uint256 indexed _candidateId);\r\n\r\n    function startElection() public {\r\n        require(msg.sender == owner);\r\n        require(electionState == State.NotStarted);\r\n        electionState = State.InProgress;\r\n    }\r\n\r\n    function endElection() public {\r\n        require(msg.sender == owner);\r\n        require(electionState == State.InProgress);\r\n        electionState = State.Ended;\r\n    }\r\n\r\n    function addCandidate(string memory _name) private {\r\n        require(owner==msg.sender, \"Only owner can add candidates\");\r\n\r\n        candidates[candidatesCount] = Candidate(candidatesCount, _name, 0);\r\n        candidatesCount++;\r\n    }\r\n\r\n    function addVoter(address _voter) public {\r\n        require(owner==msg.sender, \"Only owner can add voter\");\r\n        isVoter[_voter] = true;\r\n    }\r\n\r\n    function getRole() public view returns (uint256) {\r\n        if (owner == msg.sender) {\r\n            return 1;\r\n        } else if (isVoter[msg.sender]) {\r\n            return 2;\r\n        } else {\r\n            return 3;\r\n        }\r\n    }\r\n\r\n    function vote(uint256 _candidateId) public {\r\n        require(electionState == State.InProgress, \"Election is not in progress\");\r\n        require(isVoter[msg.sender], \"Non authorised user cannot vote\");\r\n        require(!voted[msg.sender], \"You have already voted\");\r\n        require(\r\n            _candidateId >= 0 && _candidateId < candidatesCount,\r\n            \"Invalid candidate ID\"\r\n        );\r\n\r\n        candidates[_candidateId].voteCount++;\r\n        voted[msg.sender] = true;\r\n\r\n        emit Voted(_candidateId);\r\n    }\r\n\r\n    function getCandidateDetails(uint256 _candidateId)\r\n        public\r\n        view\r\n        returns (string memory, uint256)\r\n    {\r\n        require(\r\n            _candidateId >= 0 && _candidateId < candidatesCount,\r\n            \"Invalid candidate ID\"\r\n        );\r\n        return (\r\n            candidates[_candidateId].name,\r\n            candidates[_candidateId].voteCount\r\n        );\r\n    }\r\n}\r\n",
  "sourcePath": "C:\\dev\\voting-dapp\\contracts\\Voting.sol",
  "compiler": {
    "name": "solc",
    "version": "0.8.14+commit.80d49f37.Emscripten.clang"
  },
  "schemaVersion": "3.4.7",
  "updatedAt": "2022-07-07T17:56:36.405Z",
  "networkType": "ethereum",
  "devdoc": {
    "kind": "dev",
    "methods": {},
    "version": 1
  },
  "userdoc": {
    "kind": "user",
    "methods": {},
    "version": 1
  }
}